{
  "contractName": "HealthRecord",
  "abi": [
    {
      "anonymous": false,
      "inputs": [
        {
          "indexed": true,
          "internalType": "address",
          "name": "owner",
          "type": "address"
        },
        {
          "indexed": false,
          "internalType": "string",
          "name": "recordHash",
          "type": "string"
        }
      ],
      "name": "RecordSet",
      "type": "event"
    },
    {
      "inputs": [
        {
          "internalType": "string",
          "name": "_recordHash",
          "type": "string"
        }
      ],
      "name": "setRecord",
      "outputs": [],
      "stateMutability": "nonpayable",
      "type": "function"
    },
    {
      "inputs": [
        {
          "internalType": "string",
          "name": "_recordHash",
          "type": "string"
        }
      ],
      "name": "getRecordOwner",
      "outputs": [
        {
          "internalType": "address",
          "name": "",
          "type": "address"
        }
      ],
      "stateMutability": "view",
      "type": "function",
      "constant": true
    },
    {
      "inputs": [
        {
          "internalType": "string",
          "name": "_recordHash",
          "type": "string"
        },
        {
          "internalType": "address",
          "name": "_owner",
          "type": "address"
        }
      ],
      "name": "verifyRecord",
      "outputs": [
        {
          "internalType": "bool",
          "name": "",
          "type": "bool"
        }
      ],
      "stateMutability": "view",
      "type": "function",
      "constant": true
    }
  ],
  "bytecode": "0x608060405234801561001057600080fd5b506103d3806100206000396000f3fe608060405234801561001057600080fd5b50600436106100415760003560e01c8063231b75791461004657806326122c061461006e5780633e0a009914610099575b600080fd5b61005961005436600461028f565b6100ae565b60405190151581526020015b60405180910390f35b61008161007c3660046102ed565b6100ec565b6040516001600160a01b039091168152602001610065565b6100ac6100a73660046102ed565b61011c565b005b6000816001600160a01b03166000846040516100ca919061034e565b908152604051908190036020019020546001600160a01b031614905092915050565b600080826040516100fd919061034e565b908152604051908190036020019020546001600160a01b031692915050565b60008151116101715760405162461bcd60e51b815260206004820152601c60248201527f5265636f726420686173682063616e6e6f7420626520656d7074792e00000000604482015260640160405180910390fd5b33600082604051610182919061034e565b90815260405190819003602001812080546001600160a01b03939093166001600160a01b03199093169290921790915533907f29e8f11289c0df531b3646f098326cc5195a5064997bace7bd2d0dff504c90e9906101e190849061036a565b60405180910390a250565b634e487b7160e01b600052604160045260246000fd5b600082601f83011261021357600080fd5b813567ffffffffffffffff8082111561022e5761022e6101ec565b604051601f8301601f19908116603f01168101908282118183101715610256576102566101ec565b8160405283815286602085880101111561026f57600080fd5b836020870160208301376000602085830101528094505050505092915050565b600080604083850312156102a257600080fd5b823567ffffffffffffffff8111156102b957600080fd5b6102c585828601610202565b92505060208301356001600160a01b03811681146102e257600080fd5b809150509250929050565b6000602082840312156102ff57600080fd5b813567ffffffffffffffff81111561031657600080fd5b61032284828501610202565b949350505050565b60005b8381101561034557818101518382015260200161032d565b50506000910152565b6000825161036081846020870161032a565b9190910192915050565b602081526000825180602084015261038981604085016020870161032a565b601f01601f1916919091016040019291505056fea26469706673582212203c75aa80e50e932b812f2daabf335fceebdb5390553407c044a5be60bc65e56564736f6c63430008130033",
  "immutableReferences": {},
  "source": "// SPDX-License-Identifier: MIT\r\npragma solidity ^0.8.0;\r\n\r\ncontract HealthRecord {\r\n    // Mapping from a record hash to the address of the owner\r\n    mapping(string => address) private recordOwners;\r\n    \r\n    // Event to log when a record is set\r\n    event RecordSet(address indexed owner, string recordHash);\r\n\r\n    /**\r\n     * @dev Sets or updates a health record hash for the message sender.\r\n     * @param _recordHash The SHA-256 hash of the health record.\r\n     */\r\n    function setRecord(string memory _recordHash) public {\r\n        require(bytes(_recordHash).length > 0, \"Record hash cannot be empty.\");\r\n        recordOwners[_recordHash] = msg.sender;\r\n        emit RecordSet(msg.sender, _recordHash);\r\n    }\r\n\r\n    /**\r\n     * @dev Retrieves the owner of a given health record hash.\r\n     * @param _recordHash The SHA-256 hash of the health record.\r\n     * @return The address of the owner, or the zero address if not found.\r\n     */\r\n    function getRecordOwner(string memory _recordHash) public view returns (address) {\r\n        return recordOwners[_recordHash];\r\n    }\r\n\r\n    /**\r\n     * @dev Verifies if a record hash belongs to a specific owner.\r\n     * @param _recordHash The SHA-256 hash of the health record.\r\n     * @param _owner The address to verify against.\r\n     * @return True if the hash belongs to the owner, false otherwise.\r\n     */\r\n    function verifyRecord(string memory _recordHash, address _owner) public view returns (bool) {\r\n        return recordOwners[_recordHash] == _owner;\r\n    }\r\n}\r\n",
  "sourcePath": "c:\\Users\\hp\\HealthChain-AI\\HealthChain-AI\\server\\contracts\\HealthRecord.sol",
  "compiler": {
    "name": "solc",
    "version": "0.8.19+commit.7dd6d404.Emscripten.clang"
  },
  "schemaVersion": "3.4.16",
  "updatedAt": "2026-04-25T07:23:38.954Z",
  "networkType": "ethereum",
  "devdoc": {
    "kind": "dev",
    "methods": {
      "getRecordOwner(string)": {
        "details": "Retrieves the owner of a given health record hash.",
        "params": {
          "_recordHash": "The SHA-256 hash of the health record."
        },
        "returns": {
          "_0": "The address of the owner, or the zero address if not found."
        }
      },
      "setRecord(string)": {
        "details": "Sets or updates a health record hash for the message sender.",
        "params": {
          "_recordHash": "The SHA-256 hash of the health record."
        }
      },
      "verifyRecord(string,address)": {
        "details": "Verifies if a record hash belongs to a specific owner.",
        "params": {
          "_owner": "The address to verify against.",
          "_recordHash": "The SHA-256 hash of the health record."
        },
        "returns": {
          "_0": "True if the hash belongs to the owner, false otherwise."
        }
      }
    },
    "version": 1
  },
  "userdoc": {
    "kind": "user",
    "methods": {},
    "version": 1
  }
}